{
  "txid": "9f0706c2717fc77bf0f225a4223933a7decb8d36902ddbb0accab8ea894f8b29",
  "hash": "9f0706c2717fc77bf0f225a4223933a7decb8d36902ddbb0accab8ea894f8b29",
  "version": 2,
  "size": 372,
  "vsize": 372,
  "weight": 1488,
  "locktime": 2582723,
  "vin": [
    {
      "txid": "2e4428f122341d770a9074b3f62040f2d48b78a253ad0c46eabaf3732ac2f7eb",
      "vout": 0,
      "scriptSig": {
        "asm": "3044022062dae13ba281d0cf529b604bb59c1efcd7b83438af34d4a51acc6f31041be18c022044df281e688a52624f45f6c26662349d1f5efedd4d69530e65b7d7cec0d3792d[ALL] 038e509bc056004a5da7460b5acd5d4dcb2add41d53817180499e3814290ecc91e",
        "hex": "473044022062dae13ba281d0cf529b604bb59c1efcd7b83438af34d4a51acc6f31041be18c022044df281e688a52624f45f6c26662349d1f5efedd4d69530e65b7d7cec0d3792d0121038e509bc056004a5da7460b5acd5d4dcb2add41d53817180499e3814290ecc91e"
      },
      "sequence": 4294967293
    },
    {
      "txid": "f548a9fff50f98aae908594b5f0cd1a8ef57abf7a744a64b0f855b21389ff0b5",
      "vout": 0,
      "scriptSig": {
        "asm": "304402206538fc72b896e4c6e807a4daf56191f68dec307c3011d082e69eeb3d45d6d8c302205a329814ab87901ae56a82587e716fa2282ecc665ab203da14d93db71181ecd8[ALL] 02498a833095175800f40b2c0ab23f108b47a319a94ccea826062bf66c827e91a9",
        "hex": "47304402206538fc72b896e4c6e807a4daf56191f68dec307c3011d082e69eeb3d45d6d8c302205a329814ab87901ae56a82587e716fa2282ecc665ab203da14d93db71181ecd8012102498a833095175800f40b2c0ab23f108b47a319a94ccea826062bf66c827e91a9"
      },
      "sequence": 4294967293
    }
  ],
  "vout": [
    {
      "value": 0.00488600,
      "n": 0,
      "scriptPubKey": {
        "asm": "OP_DUP OP_HASH160 73cce22e78ec61cd54a6438ca1210b88561ebcdd OP_EQUALVERIFY OP_CHECKSIG",
        "desc": "addr(mr5FSft4PQvoWbf9Sf5iQXbw1u445iNksp)#x6h0knfc",
        "hex": "76a91473cce22e78ec61cd54a6438ca1210b88561ebcdd88ac",
        "address": "mr5FSft4PQvoWbf9Sf5iQXbw1u445iNksp",
        "type": "pubkeyhash"
      }
    },
    {
      "value": 0.00500000,
      "n": 1,
      "scriptPubKey": {
        "asm": "OP_DUP OP_HASH160 2c81478132b5dda64ffc484a0d225096c4b22ad5 OP_EQUALVERIFY OP_CHECKSIG",
        "desc": "addr(mjaGtyj74LYn7gApr17prZxDPDnfuUnRa5)#8s3w56rv",
        "hex": "76a9142c81478132b5dda64ffc484a0d225096c4b22ad588ac",
        "address": "mjaGtyj74LYn7gApr17prZxDPDnfuUnRa5",
        "type": "pubkeyhash"
      }
    }
  ],
  "hex": "0200000002ebf7c22a73f3baea460cad53a2788bd4f24020f6b374900a771d3422f128442e000000006a473044022062dae13ba281d0cf529b604bb59c1efcd7b83438af34d4a51acc6f31041be18c022044df281e688a52624f45f6c26662349d1f5efedd4d69530e65b7d7cec0d3792d0121038e509bc056004a5da7460b5acd5d4dcb2add41d53817180499e3814290ecc91efdffffffb5f09f38215b850f4ba644a7f7ab57efa8d10c5f4b5908e9aa980ff5ffa948f5000000006a47304402206538fc72b896e4c6e807a4daf56191f68dec307c3011d082e69eeb3d45d6d8c302205a329814ab87901ae56a82587e716fa2282ecc665ab203da14d93db71181ecd8012102498a833095175800f40b2c0ab23f108b47a319a94ccea826062bf66c827e91a9fdffffff0298740700000000001976a91473cce22e78ec61cd54a6438ca1210b88561ebcdd88ac20a10700000000001976a9142c81478132b5dda64ffc484a0d225096c4b22ad588acc3682700",
  "blockhash": "00000000001e94d85c3e736aa4071d36d26547713820a27af9edbe97489c696f",
  "confirmations": 105277,
  "time": 1710931198,
  "blocktime": 1710931198
}