{
  "txid": "586c51dc94452aed9a373b0f52936c3e343c0db90f1155e985fd60e3c2e5c2b2",
  "hash": "586c51dc94452aed9a373b0f52936c3e343c0db90f1155e985fd60e3c2e5c2b2",
  "version": 2,
  "size": 225,
  "vsize": 225,
  "weight": 900,
  "locktime": 2583052,
  "vin": [
    {
      "txid": "246797fcd3fa5b73281844ff57cf8cd169ad65dd9ee420199096d2da7ffd4ee9",
      "vout": 1,
      "scriptSig": {
        "asm": "3044022030c0a2d3fe1ca65ba8f7fe9954a0323ce6760371eee7e2009d87a9ac0d89004d02203e26f1c77e18efae10d2a851ff92c16faa8f748114530806dcf7cb960faa3502[ALL] 03268fbcde07bafc9b32966e4a5ce6b5d8900555688abee89e230ccce94f485b0f",
        "hex": "473044022030c0a2d3fe1ca65ba8f7fe9954a0323ce6760371eee7e2009d87a9ac0d89004d02203e26f1c77e18efae10d2a851ff92c16faa8f748114530806dcf7cb960faa3502012103268fbcde07bafc9b32966e4a5ce6b5d8900555688abee89e230ccce94f485b0f"
      },
      "sequence": 4294967293
    }
  ],
  "vout": [
    {
      "value": 0.00099200,
      "n": 0,
      "scriptPubKey": {
        "asm": "OP_DUP OP_HASH160 bb7ef8f8e243b309fb8249aa24414f6861a5b5e3 OP_EQUALVERIFY OP_CHECKSIG",
        "desc": "addr(mxcLm8hdhfJ1cutzeq6zdwcUohKVfmRhPu)#l89lgk9k",
        "hex": "76a914bb7ef8f8e243b309fb8249aa24414f6861a5b5e388ac",
        "address": "mxcLm8hdhfJ1cutzeq6zdwcUohKVfmRhPu",
        "type": "pubkeyhash"
      }
    },
    {
      "value": 0.00200000,
      "n": 1,
      "scriptPubKey": {
        "asm": "OP_DUP OP_HASH160 eebde2e5b79139fe6e2fc209a90a2348abb4b195 OP_EQUALVERIFY OP_CHECKSIG",
        "desc": "addr(n3HJbF1Ps5c9ZE3UvLyjGFDvyAfjzDEBkS)#cv2h8a9h",
        "hex": "76a914eebde2e5b79139fe6e2fc209a90a2348abb4b19588ac",
        "address": "n3HJbF1Ps5c9ZE3UvLyjGFDvyAfjzDEBkS",
        "type": "pubkeyhash"
      }
    }
  ],
  "hex": "0200000001e94efd7fdad296901920e49edd65ad69d18ccf57ff441828735bfad3fc976724010000006a473044022030c0a2d3fe1ca65ba8f7fe9954a0323ce6760371eee7e2009d87a9ac0d89004d02203e26f1c77e18efae10d2a851ff92c16faa8f748114530806dcf7cb960faa3502012103268fbcde07bafc9b32966e4a5ce6b5d8900555688abee89e230ccce94f485b0ffdffffff0280830100000000001976a914bb7ef8f8e243b309fb8249aa24414f6861a5b5e388ac400d0300000000001976a914eebde2e5b79139fe6e2fc209a90a2348abb4b19588ac0c6a2700",
  "blockhash": "000000000000001ae7d2caee3ed20409e35c1a8c847c5f9e919e93856fb79d5c",
  "confirmations": 286001,
  "time": 1711123214,
  "blocktime": 1711123214
}