{  "txid": "da28401c76d618e8c3b1c3e15dfe1c10d4b24875f23768f30bcc26c99b9c82d4",
  "hash": "da28401c76d618e8c3b1c3e15dfe1c10d4b24875f23768f30bcc26c99b9c82d4",
  "version": 2,
  "size": 440,
  "vsize": 440,
  "weight": 1760,
  "locktime": 2583056,
  "vin": [
    {
      "txid": "a93ff9afbc02e0f24195b7f2befdb4335fa462d116a8d97198cef3759900ffbb",
      "vout": 0,
      "scriptSig": {
        "asm": "3044022026feb93027d9a026faa3a006698d215c6eafa06aade1a06bc4fc1dc25658741c022044d7b325f08eb807064d6320f749ce32a558d93fc17ab737956a7464d32716a7[ALL] 0269cd111c5101e3bbca14f325c8dc32887372dde0b7b63e8fdb9f3425ddddd1e6",
        "hex": "473044022026feb93027d9a026faa3a006698d215c6eafa06aade1a06bc4fc1dc25658741c022044d7b325f08eb807064d6320f749ce32a558d93fc17ab737956a7464d32716a701210269cd111c5101e3bbca14f325c8dc32887372dde0b7b63e8fdb9f3425ddddd1e6"
      },
      "sequence": 4294967293
    },
    {
      "txid": "fda421ccdff7324a382067d1746f6a387132435de6af336a0ebbf3f720eaae4d",
      "vout": 0,
      "scriptSig": {
        "asm": "304402202e2a2ba939e194d68725cae4c0c4b6ed037b0464e534b7b1326ecc38796cdb6702202142a64fc6ffb041a65e5ef819586099e953ae77a43aea6144eded3aeb562e35[ALL] 02b6393e486ceb7d7b13e2c4da4ca5cd6ef97c47671ef89341a43fba24dcc0e905",
        "hex": "47304402202e2a2ba939e194d68725cae4c0c4b6ed037b0464e534b7b1326ecc38796cdb6702202142a64fc6ffb041a65e5ef819586099e953ae77a43aea6144eded3aeb562e35012102b6393e486ceb7d7b13e2c4da4ca5cd6ef97c47671ef89341a43fba24dcc0e905"
      },
      "sequence": 4294967293
    }
  ],
  "vout": [
    {
      "value": 0.00009300,
      "n": 0,
      "scriptPubKey": {
        "asm": "OP_DUP OP_HASH160 58bd2e490494f2a3c170eff065376075ea09e050 OP_EQUALVERIFY OP_CHECKSIG",
        "desc": "addr(mocAPSv6trAJoZRoqcn18kvXEjcxvXc9m5)#zxa2dvh0",
        "hex": "76a91458bd2e490494f2a3c170eff065376075ea09e05088ac",
        "address": "mocAPSv6trAJoZRoqcn18kvXEjcxvXc9m5",
        "type": "pubkeyhash"
      }
    },
    {
      "value": 0.00020000,
      "n": 1,
      "scriptPubKey": {
        "asm": "OP_DUP OP_HASH160 eebde2e5b79139fe6e2fc209a90a2348abb4b195 OP_EQUALVERIFY OP_CHECKSIG",
        "desc": "addr(n3HJbF1Ps5c9ZE3UvLyjGFDvyAfjzDEBkS)#cv2h8a9h",
        "hex": "76a914eebde2e5b79139fe6e2fc209a90a2348abb4b19588ac",
        "address": "n3HJbF1Ps5c9ZE3UvLyjGFDvyAfjzDEBkS",
        "type": "pubkeyhash"
      }
    },
    {
      "value": 0.00100000,
      "n": 2,
      "scriptPubKey": {
        "asm": "OP_DUP OP_HASH160 eebde2e5b79139fe6e2fc209a90a2348abb4b195 OP_EQUALVERIFY OP_CHECKSIG",
        "desc": "addr(n3HJbF1Ps5c9ZE3UvLyjGFDvyAfjzDEBkS)#cv2h8a9h",
        "hex": "76a914eebde2e5b79139fe6e2fc209a90a2348abb4b19588ac",
        "address": "n3HJbF1Ps5c9ZE3UvLyjGFDvyAfjzDEBkS",
        "type": "pubkeyhash"
      }
    },
    {
      "value": 0.00100000,
      "n": 3,
      "scriptPubKey": {
        "asm": "OP_DUP OP_HASH160 eebde2e5b79139fe6e2fc209a90a2348abb4b195 OP_EQUALVERIFY OP_CHECKSIG",
        "desc": "addr(n3HJbF1Ps5c9ZE3UvLyjGFDvyAfjzDEBkS)#cv2h8a9h",
        "hex": "76a914eebde2e5b79139fe6e2fc209a90a2348abb4b19588ac",
        "address": "n3HJbF1Ps5c9ZE3UvLyjGFDvyAfjzDEBkS",
        "type": "pubkeyhash"
      }
    }
  ],
  "hex": "0200000002bbff009975f3ce9871d9a816d162a45f33b4fdbef2b79541f2e002bcaff93fa9000000006a473044022026feb93027d9a026faa3a006698d215c6eafa06aade1a06bc4fc1dc25658741c022044d7b325f08eb807064d6320f749ce32a558d93fc17ab737956a7464d32716a701210269cd111c5101e3bbca14f325c8dc32887372dde0b7b63e8fdb9f3425ddddd1e6fdffffff4daeea20f7f3bb0e6a33afe65d433271386a6f74d16720384a32f7dfcc21a4fd000000006a47304402202e2a2ba939e194d68725cae4c0c4b6ed037b0464e534b7b1326ecc38796cdb6702202142a64fc6ffb041a65e5ef819586099e953ae77a43aea6144eded3aeb562e35012102b6393e486ceb7d7b13e2c4da4ca5cd6ef97c47671ef89341a43fba24dcc0e905fdffffff0454240000000000001976a91458bd2e490494f2a3c170eff065376075ea09e05088ac204e0000000000001976a914eebde2e5b79139fe6e2fc209a90a2348abb4b19588aca0860100000000001976a914eebde2e5b79139fe6e2fc209a90a2348abb4b19588aca0860100000000001976a914eebde2e5b79139fe6e2fc209a90a2348abb4b19588ac106a2700",
  "blockhash": "000000000000000cc3a83117af2c50ff0c8c553fb340cf30912c2e7a4b4abb50",
  "confirmations": 285997,
  "time": 1711126232,
  "blocktime": 1711126232
}