{
  "txid": "2ba6da53badd14349c5d6379e88c345e88193598aad714815d4b57c691a9fbdf",
  "hash": "2ba6da53badd14349c5d6379e88c345e88193598aad714815d4b57c691a9fbdf",
  "version": 2,
  "size": 268,
  "vsize": 268,
  "weight": 1072,
  "locktime": 0,
  "vin": [
    {
      "txid": "0db41ca6bc9576e65f4c4be32b0edeba6b5bf4a0b66de06f4e6ca0759a59cd36",
      "vout": 2,
      "scriptSig": {
        "asm": "30440220056facfa8f0165865c0a945fa9ced821dbde4bf16b34dae365058dbd3715f30302201517904ace89e3bfefaeac284ba11d27458580e9fd5f3dda0b876dd9f2ec08ba[ALL] 02c50e934b46f215be07dbf4c5c030b7a4035374c99c529270df1451a5a1a200cf",
        "hex": "4730440220056facfa8f0165865c0a945fa9ced821dbde4bf16b34dae365058dbd3715f30302201517904ace89e3bfefaeac284ba11d27458580e9fd5f3dda0b876dd9f2ec08ba012102c50e934b46f215be07dbf4c5c030b7a4035374c99c529270df1451a5a1a200cf"
      },
      "sequence": 4294967293
    }
  ],
  "vout": [
    {
      "value": 0.00600000,
      "n": 0,
      "scriptPubKey": {
        "asm": "OP_DUP OP_HASH160 6e84f2d601c6742a94bf9ba32bea7e3f3e377fbb OP_EQUALVERIFY OP_CHECKSIG",
        "desc": "addr(mqbKtarYKnoEdPheFFDGRjksvEpb2vJGNh)#g4ymaeqj",
        "hex": "76a9146e84f2d601c6742a94bf9ba32bea7e3f3e377fbb88ac",
        "address": "mqbKtarYKnoEdPheFFDGRjksvEpb2vJGNh",
        "type": "pubkeyhash"
      }
    },
    {
      "value": 0.00000000,
      "n": 1,
      "scriptPubKey": {
        "asm": "OP_RETURN 6dbec2088e39320564496be6e013f7f6e32736ac7373053cafdc7dd4d945eac4",
        "desc": "raw(6a206dbec2088e39320564496be6e013f7f6e32736ac7373053cafdc7dd4d945eac4)#r0sc65n8",
        "hex": "6a206dbec2088e39320564496be6e013f7f6e32736ac7373053cafdc7dd4d945eac4",
        "type": "nulldata"
      }
    },
    {
      "value": 0.00253100,
      "n": 2,
      "scriptPubKey": {
        "asm": "OP_DUP OP_HASH160 eebde2e5b79139fe6e2fc209a90a2348abb4b195 OP_EQUALVERIFY OP_CHECKSIG",
        "desc": "addr(n3HJbF1Ps5c9ZE3UvLyjGFDvyAfjzDEBkS)#cv2h8a9h",
        "hex": "76a914eebde2e5b79139fe6e2fc209a90a2348abb4b19588ac",
        "address": "n3HJbF1Ps5c9ZE3UvLyjGFDvyAfjzDEBkS",
        "type": "pubkeyhash"
      }
    }
  ],
  "hex": "020000000136cd599a75a06c4e6fe06db6a0f45b6bbade0e2be34b4c5fe67695bca61cb40d020000006a4730440220056facfa8f0165865c0a945fa9ced821dbde4bf16b34dae365058dbd3715f30302201517904ace89e3bfefaeac284ba11d27458580e9fd5f3dda0b876dd9f2ec08ba012102c50e934b46f215be07dbf4c5c030b7a4035374c99c529270df1451a5a1a200cffdffffff03c0270900000000001976a9146e84f2d601c6742a94bf9ba32bea7e3f3e377fbb88ac0000000000000000226a206dbec2088e39320564496be6e013f7f6e32736ac7373053cafdc7dd4d945eac4acdc0300000000001976a914eebde2e5b79139fe6e2fc209a90a2348abb4b19588ac00000000",
  "blockhash": "0000000000000000b29a23f4bbb1a8829602fbb9d4b221fa03d21632d3682848",
  "confirmations": 288434,
  "time": 1709645043,
  "blocktime": 1709645043
}