{
  "txid": "fda421ccdff7324a382067d1746f6a387132435de6af336a0ebbf3f720eaae4d",
  "hash": "fda421ccdff7324a382067d1746f6a387132435de6af336a0ebbf3f720eaae4d",
  "version": 2,
  "size": 813,
  "vsize": 813,
  "weight": 3252,
  "locktime": 2583052,
  "vin": [
    {
      "txid": "246797fcd3fa5b73281844ff57cf8cd169ad65dd9ee420199096d2da7ffd4ee9",
      "vout": 0,
      "scriptSig": {
        "asm": "30440220592a82ec3bb7c0aba1eadb2e737801bd62e327fa586d48e70463063db25a223a02202ca1c398922b452368c5b85449157b7f9be39f4ff0f1d5844dc3f0d958f30809[ALL] 035e2c1ab556d102e9266d9621e12e19b88bb91f6a2c31229ddce088225f70731a",
        "hex": "4730440220592a82ec3bb7c0aba1eadb2e737801bd62e327fa586d48e70463063db25a223a02202ca1c398922b452368c5b85449157b7f9be39f4ff0f1d5844dc3f0d958f308090121035e2c1ab556d102e9266d9621e12e19b88bb91f6a2c31229ddce088225f70731a"
      },
      "sequence": 4294967293
    },
    {
      "txid": "3c0f0a734a6b5d6153575437de69cb2dc4192277568a1ab20e18037233767002",
      "vout": 0,
      "scriptSig": {
        "asm": "3044022078e6bc1506c6bec1158b5d968df06a3a14d2b30d41968ac14cd2956665a3296002205d71107493f085e30b6a2e5e2e227f3373158144928848e93ab5aaeb14a703ad[ALL] 02badb23094c1cf5b1e07327c36eb747f2253aaab1bda09e22976cdeccb6a478a5",
        "hex": "473044022078e6bc1506c6bec1158b5d968df06a3a14d2b30d41968ac14cd2956665a3296002205d71107493f085e30b6a2e5e2e227f3373158144928848e93ab5aaeb14a703ad012102badb23094c1cf5b1e07327c36eb747f2253aaab1bda09e22976cdeccb6a478a5"
      },
      "sequence": 4294967293
    },
    {
      "txid": "693a946f49c542fef4b8f66852f3523073160395fc6a9c7e2d306e51fcb4104d",
      "vout": 0,
      "scriptSig": {
        "asm": "304402206439f5e80af6d11f2bec68903df3f3c167618a23be956be0f104bd4abededd2b02207b7e4af7206481d6ce253b4387ad5d24f37501965ebbbd6422e3dbd389b3d649[ALL] 030f30f2a81f2ff7d79e6f177f07210fd0d636e1a65fb90650e11f36349783ad23",
        "hex": "47304402206439f5e80af6d11f2bec68903df3f3c167618a23be956be0f104bd4abededd2b02207b7e4af7206481d6ce253b4387ad5d24f37501965ebbbd6422e3dbd389b3d6490121030f30f2a81f2ff7d79e6f177f07210fd0d636e1a65fb90650e11f36349783ad23"
      },
      "sequence": 4294967293
    },
    {
      "txid": "9f0706c2717fc77bf0f225a4223933a7decb8d36902ddbb0accab8ea894f8b29",
      "vout": 0,
      "scriptSig": {
        "asm": "3044022042986a4ead6e54f54b11c238a5cf405fb4b14d10eb4b78d3ddae82a4e34cd7cd022046754e565a735cd81868d9ce6479f01c6c338aaba0850fce8be8c1fe79abf447[ALL] 03315f277a852472bdddb0ae8177d83fe044fec5bac38eb94f1dad5333c5de2888",
        "hex": "473044022042986a4ead6e54f54b11c238a5cf405fb4b14d10eb4b78d3ddae82a4e34cd7cd022046754e565a735cd81868d9ce6479f01c6c338aaba0850fce8be8c1fe79abf447012103315f277a852472bdddb0ae8177d83fe044fec5bac38eb94f1dad5333c5de2888"
      },
      "sequence": 4294967293
    },
    {
      "txid": "aca1aa822c62405e570a63d359e21d79218d12e278083b08aea011459e3ab0fd",
      "vout": 0,
      "scriptSig": {
        "asm": "3044022052b967f06b2057c9a93191c10e210189b9a67ae45971b4763d293b08baf45356022043739b70503a2cdb932422478cdf52aa440bb7ec5a846ce925651f43cea8c83b[ALL] 0387c01fd758a9ee98f05eab81d93aae2eb9641cc9fbbb8812c45b50f7d2bcc25e",
        "hex": "473044022052b967f06b2057c9a93191c10e210189b9a67ae45971b4763d293b08baf45356022043739b70503a2cdb932422478cdf52aa440bb7ec5a846ce925651f43cea8c83b01210387c01fd758a9ee98f05eab81d93aae2eb9641cc9fbbb8812c45b50f7d2bcc25e"
      },
      "sequence": 4294967293
    }
  ],
  "vout": [
    {
      "value": 0.00187300,
      "n": 0,
      "scriptPubKey": {
        "asm": "OP_DUP OP_HASH160 df42890907b79ae9a27d5a91cc20ebec0f1da386 OP_EQUALVERIFY OP_CHECKSIG",
        "desc": "addr(n1sSgnWcHU8AeHTVFez9RQ8HxMdAVHJXui)#ttedklmm",
        "hex": "76a914df42890907b79ae9a27d5a91cc20ebec0f1da38688ac",
        "address": "n1sSgnWcHU8AeHTVFez9RQ8HxMdAVHJXui",
        "type": "pubkeyhash"
      }
    },
    {
      "value": 0.02000000,
      "n": 1,
      "scriptPubKey": {
        "asm": "OP_DUP OP_HASH160 eebde2e5b79139fe6e2fc209a90a2348abb4b195 OP_EQUALVERIFY OP_CHECKSIG",
        "desc": "addr(n3HJbF1Ps5c9ZE3UvLyjGFDvyAfjzDEBkS)#cv2h8a9h",
        "hex": "76a914eebde2e5b79139fe6e2fc209a90a2348abb4b19588ac",
        "address": "n3HJbF1Ps5c9ZE3UvLyjGFDvyAfjzDEBkS",
        "type": "pubkeyhash"
      }
    }
  ],
  "hex": "0200000005e94efd7fdad296901920e49edd65ad69d18ccf57ff441828735bfad3fc976724000000006a4730440220592a82ec3bb7c0aba1eadb2e737801bd62e327fa586d48e70463063db25a223a02202ca1c398922b452368c5b85449157b7f9be39f4ff0f1d5844dc3f0d958f308090121035e2c1ab556d102e9266d9621e12e19b88bb91f6a2c31229ddce088225f70731afdffffff027076337203180eb21a8a56772219c42dcb69de37545753615d6b4a730a0f3c000000006a473044022078e6bc1506c6bec1158b5d968df06a3a14d2b30d41968ac14cd2956665a3296002205d71107493f085e30b6a2e5e2e227f3373158144928848e93ab5aaeb14a703ad012102badb23094c1cf5b1e07327c36eb747f2253aaab1bda09e22976cdeccb6a478a5fdffffff4d10b4fc516e302d7e9c6afc950316733052f35268f6b8f4fe42c5496f943a69000000006a47304402206439f5e80af6d11f2bec68903df3f3c167618a23be956be0f104bd4abededd2b02207b7e4af7206481d6ce253b4387ad5d24f37501965ebbbd6422e3dbd389b3d6490121030f30f2a81f2ff7d79e6f177f07210fd0d636e1a65fb90650e11f36349783ad23fdffffff298b4f89eab8caacb0db2d90368dcbdea7333922a425f2f07bc77f71c206079f000000006a473044022042986a4ead6e54f54b11c238a5cf405fb4b14d10eb4b78d3ddae82a4e34cd7cd022046754e565a735cd81868d9ce6479f01c6c338aaba0850fce8be8c1fe79abf447012103315f277a852472bdddb0ae8177d83fe044fec5bac38eb94f1dad5333c5de2888fdfffffffdb03a9e4511a0ae083b0878e2128d21791de259d3630a575e40622c82aaa1ac000000006a473044022052b967f06b2057c9a93191c10e210189b9a67ae45971b4763d293b08baf45356022043739b70503a2cdb932422478cdf52aa440bb7ec5a846ce925651f43cea8c83b01210387c01fd758a9ee98f05eab81d93aae2eb9641cc9fbbb8812c45b50f7d2bcc25efdffffff02a4db0200000000001976a914df42890907b79ae9a27d5a91cc20ebec0f1da38688ac80841e00000000001976a914eebde2e5b79139fe6e2fc209a90a2348abb4b19588ac0c6a2700",
  "blockhash": "000000000000001ae7d2caee3ed20409e35c1a8c847c5f9e919e93856fb79d5c",
  "confirmations": 286001,
  "time": 1711123214,
  "blocktime": 1711123214
}